:020000040000FA
:100000000C9458000C9480000C9480000C94800098
:100010000C9480000C9480000C9480000C94800060
:100020000C9480000C9480000C9480000C94800050
:100030000C9480000C9480000C9480000C94800040
:100040000C94F8050C9480000C9468060C944206FD
:100050000C9480000C9480000C9480000C94800020
:100060000C949A060C9480000000000025002800E3
:100070002B00040404040404040402020202020229
:10008000030303030303010204081020408001025C
:1000900004081020010204081020000000080002DB
:1000A0000100000304070000000000000000B90781
:1000B00011241FBECFEFD8E0DEBFCDBF11E0A0E01E
:1000C000B1E0E2E6F6E102C005900D92A432B1077C
:1000D000D9F722E0A4E2B1E001C01D92A739B2072E
:1000E000E1F710E0C8E5D0E004C02197FE010E94CE
:1000F000290BC735D107C9F70E94FA070C942F0BBB
:100100000C94000090E0FC01E656FF4F2491FC01A6
:10011000EA57FF4F3491FC01EE58FF4FE491EE2374
:10012000C9F0222339F0233001F1A8F4213019F16C
:10013000223029F1F0E0EE0FFF1FE859FF4FA591A3
:10014000B4918FB7F894EC91611126C030953E239D
:100150003C938FBF08952730A9F02830C9F0243090
:1001600049F7809180008F7D03C0809180008F7758
:1001700080938000DFCF84B58F7784BDDBCF84B5DB
:100180008F7DFBCF8091B0008F778093B000D2CF6E
:100190008091B0008F7DF9CF3E2BDACF3FB7F89436
:1001A0008091910190919201A0919301B09194015D
:1001B00026B5A89B05C02F3F19F00196A11DB11DC2
:1001C0003FBFBA2FA92F982F8827BC01CD01620FFE
:1001D000711D811D911D42E0660F771F881F991FB9
:1001E0004A95D1F708958F929F92AF92BF92CF9286
:1001F000DF92EF92FF924B015C010E94CE006B01F7
:100200007C010E94CE006C197D098E099F09683E11
:10021000734081059105A8F321E0821A9108A10895
:10022000B10888EEC80E83E0D81EE11CF11C8114D1
:100230009104A104B10429F7FF90EF90DF90CF90D3
:10024000BF90AF909F908F90089508950895AF92BA
:10025000BF92CF92DF92EF92FF920F931F93CF93B3
:10026000DF936C017B018B01040F151FEB015E0115
:10027000AE18BF08C017D10759F06991D601ED91AA
:10028000FC910190F081E02DC6010995892B79F749
:10029000C501DF91CF911F910F91FF90EF90DF90FB
:1002A000CF90BF90AF900895FC01538D448D252FC2
:1002B00030E0842F90E0821B930B541710F0CF9600
:1002C000089501970895FC01918D828D981761F032
:1002D000A28DAE0FBF2FB11D5D968C91928D9F5F49
:1002E0009F73928F90E008958FEF9FEF0895FC0128
:1002F000918D828D981731F0828DE80FF11D858DDB
:1003000090E008958FEF9FEF0895FC01918D228D6D
:10031000892F90E0805C9F4F821B91098F739927F2
:10032000089587EE91E00E94850121E0892B09F470
:1003300020E0822F089580E090E0892B29F00E9430
:10034000910181110C9400000895FC01A48DA80F67
:10035000B92FB11DA35ABF4F2C91848D90E0019607
:100360008F739927848FA689B7892C93A089B18927
:100370008C91837080648C93938D848D981306C0C8
:100380000288F389E02D80818F7D80830895EF922C
:10039000FF920F931F93CF93DF93EC0181E0888F3F
:1003A0009B8D8C8D98131AC0E889F989808185FF0F
:1003B00015C09FB7F894EE89FF896083E889F989B1
:1003C00080818370806480839FBF81E090E0DF91B3
:1003D000CF911F910F91FF90EF900895F62E0B8D06
:1003E00010E00F5F1F4F0F731127E02E8C8D8E11C1
:1003F0000CC00FB607FCFACFE889F989808185FF28
:10040000F5CFCE010E94A501F1CFEB8DEC0FFD2FB2
:10041000F11DE35AFF4FF0829FB7F8940B8FEA89E2
:10042000FB8980818062CFCFCF93DF93EC01888DF1
:100430008823B9F0AA89BB89E889F9898C9185FD5F
:1004400003C0808186FD0DC00FB607FCF7CF8C91ED
:1004500085FFF2CF808185FFEDCFCE010E94A501FF
:10046000E9CFDF91CF910895DC01ED91FC910190EE
:10047000F081E02D099420916501260F3327331F69
:1004800021323105ECF42091BB01FC0190E080E0C9
:10049000243069F082E00895A09165012191AC01BA
:1004A0004B5B5E4FA40FB52FB11D2C9301968617A1
:1004B00098F380916501680F6093650180E008956D
:1004C00081E008951092BB0181E08093BA011092FF
:1004D000B50161E082E10E94820061E083E10E9457
:1004E0008200E9EBF0E080818E7F808380818D7FC8
:1004F000808388E48093B80085E48093BC000895ED
:10050000CF93DF9391E0909344018823B9F0C09199
:10051000B800D091BA008091BC008A7B8093BC0067
:1005200060E082E10E94820060E083E10E9482003C
:100530000E946202D093BA00C093B800DF91CF91BD
:1005400008950895E091C2018091C101E81730F447
:10055000F0E0ED53FE4F808190E008958FEF9FEF24
:1005600008959091C2018091C1012FEF3FEF98173C
:1005700048F4E92FF0E0ED53FE4F208130E09F5F1B
:100580009093C201C90108958091C1019091C20167
:10059000891B990B0895CF92DF92EF92FF920F93F0
:1005A0001F93CF93DF937C01CB018A012091E60159
:1005B000222389F0EB016B01C40ED51ECC15DD059D
:1005C00069F06991D701ED91FC910190F081E02DE6
:1005D000C7010995F3CF642F0E943B02C801DF9148
:1005E000CF911F910F91FF90EF90DF90CF900895E2
:1005F000CF93DF931F92CDB7DEB769832091E601D9
:100600002223F9F02091E301203258F021E030E07C
:10061000FC013383228390E080E00F90DF91CF9143
:1006200008958091E401E82FF0E0EC5DFE4F9981A0
:1006300090838F5F8093E4018093E30181E090E0F9
:10064000ECCF61E0CE0101960E943B02F7CFCF9242
:10065000DF92EF92FF920F931F93CF93DF93D0918E
:10066000E30181E0D13208F09CC0C091E5010E9415
:10067000CE006B017C018091BB0181116CC082E0D6
:100680008093BB0181E08093BA018FEF8093B90121
:100690001092B801D093B701A4E2B1E0E5E9F1E02E
:1006A00080E0D8138DC01092B6018091B601CC0FB6
:1006B000C82BC093B6018091B501813009F084C088
:1006C0001092B5010E94CE006B017C018091B601B1
:1006D0008093BB008091BD019091BE01A091BF01AC
:1006E000B091C001892B8A2B8B2BA1F00E94CE00E8
:1006F0000091BD011091BE012091BF013091C00158
:100700006C197D098E099F090617170728073907F5
:1007100008F442C08091BC0083FDD8CF85EC809363
:10072000BC000E94CE006B017C018091BB01823035
:1007300009F44CC08091B9018F3F09F469C08091E0
:10074000B901803209F466C08091B901803309F49F
:1007500063C084E026C08091BD019091BE01A0914C
:10076000BF01B091C001892B8A2B8B2B09F483CF59
:100770000E94CE000091BD011091BE012091BF01E9
:100780003091C0016C197D098E099F090617170762
:100790002807390708F06FCF8091BC010E948002C2
:1007A00085E01092E4011092E3011092E601DF91DE
:1007B000CF911F910F91FF90EF90DF90CF90089510
:1007C0009D9191938F5F6DCF85EEA9CF8091BD01F3
:1007D0009091BE01A091BF01B091C001892B8A2BDD
:1007E0008B2B09F4A2CF0E94CE000091BD01109185
:1007F000BE012091BF013091C0016C197D098E09A5
:100800009F09061717072807390708F08ECFC4CFAE
:1008100080E0C7CF82E0C5CF83E0C3CF1F93CF93E3
:10082000DF93162FC0E9D2E0A981BA81988121E037
:100830002093E6019093E5011092E4011092E30108
:10084000ED91FC9111970190F081E02D682FCD0181
:10085000099589819A81DC01ED91FC910190F081EB
:10086000E02D612F099589819A81DF91CF911F91A8
:100870000C94270390E080E008958F929F92AF92AE
:10088000BF92CF92DF92EF92FF920F931F93CF937D
:100890006B017C0120E030E040E85FE30E945F09EB
:1008A00087FDE1C020E030EC4AE555E4C701B60120
:1008B0000E94B70A18163CF4C12C30ECD32E3AE54E
:1008C000E32E35E4F32E60919302709194028091AF
:1008D0009502909196020E94050A4B015C0120E06E
:1008E00030E040E855E4C701B6010E94BC0A9B0114
:1008F000AC01C501B4010E94640920E030E040E091
:100900005FE30E94F30820E030E040E85FE30E94EC
:10091000F2086B017C0120E030E040E450E40E94EA
:100920005F0987FDA7C020E030E04FE753E4C7012F
:10093000B6010E94B70A181634F4C12CD12C9FE7D7
:10094000E92E93E4F92EC701B6010E94D609F62ECE
:1009500080919102909192022091900231E0309327
:10096000E6012093E5011092E4011092E301DC011D
:10097000ED91FC910190F081E02D60E0099580916E
:100980009102909192020E942703C09190020E94CE
:10099000CE004B015C018091BB01811171C081E0EF
:1009A0008093BB018093BA019FEF9093B90110929D
:1009B000B8011092B7018093B6018091B601CC0FB7
:1009C000C82BC093B6018091B501813009F0B2C047
:1009D0001092B5010E94CE004B015C018091B601DE
:1009E0008093BB008091BD019091BE01A091BF0199
:1009F000B091C001892B8A2B8B2BA1F00E94CE00D5
:100A00000091BD011091BE012091BF013091C00144
:100A1000681979098A099B090617170728073907F2
:100A200008F44FC08091BC0083FDD8CF85EC809343
:100A3000BC000E94CE004B015C018091BB01813063
:100A400009F47AC08091B801811198C08091B801F1
:100A5000E5E9F1E0A3ECB1E090E09817B9F121915C
:100A60002D939F5FFACFC12CD12C20E8E22E2FE3EB
:100A7000F22E29CFC12CD12C80E4E82EFE2C63CF9E
:100A80008091BD019091BE01A091BF01B091C001C4
:100A9000892B8A2B8B2B09F47ECF0E94CE000091EC
:100AA000BD011091BE012091BF013091C0016819B4
:100AB00079098A099B09061717072807390708F0DB
:100AC0006ACF8091BC010E94800280E01092C20136
:100AD0008093C1018091910290919202DC01ED918D
:100AE000FC910284F385E02D0995C82F682F6F765D
:100AF000606180E00E940E046F2D8EEF0E940E0454
:100B00006C2F80E00E940E0465E070E080E090E0D1
:100B10000E94F3006C2F606A80E0CF911F910F91CB
:100B2000FF90EF90DF90CF90BF90AF909F908F900D
:100B30000C940E0485EE7BCF8091BD019091BE0197
:100B4000A091BF01B091C001892B8A2B8B2B09F496
:100B500074CF0E94CE000091BD011091BE01209182
:100B6000BF013091C001681979098A099B090617EC
:100B700017072807390708F060CFA3CF81E068CFB7
:100B800085ED8093BC008091BD019091BE01A09144
:100B9000BF01B091C0010796A11DB11D23E0B6951C
:100BA000A795979587952A95D1F72091BC0024FDAC
:100BB00003C01092BB0108954091BD015091BE0148
:100BC0006091BF017091C001452B462B472B69F303
:100BD0000097A105B10541F02AE22A95F1F700C07E
:100BE0000197A109B109E1CF8091BC010C94800269
:100BF0001F920F920FB60F9211242F933F938F9352
:100C00009F93AF93BF9380918D0190918E01A0919E
:100C10008F01B091900130918C0123E0230F2D378B
:100C200058F50196A11DB11D20938C0180938D0173
:100C300090938E01A0938F01B093900180919101C8
:100C400090919201A0919301B09194010196A11D00
:100C5000B11D8093910190939201A0939301B09361
:100C60009401BF91AF919F918F913F912F910F90E0
:100C70000FBE0F901F90189526E8230F0296A11D16
:100C8000B11DD2CF1F920F920FB60F9211242F9346
:100C90003F934F935F936F937F938F939F93AF9304
:100CA000BF93EF93FF9387EE91E00E94A501FF9120
:100CB000EF91BF91AF919F918F917F916F915F91D4
:100CC0004F913F912F910F900FBE0F901F9018954D
:100CD0001F920F920FB60F9211242F938F939F9311
:100CE000EF93FF93E091F701F091F8018081E0919B
:100CF000FD01F091FE0182FD1BC0908180910002F8
:100D00008F5F8F7320910102821741F0E091000202
:100D1000F0E0E951FE4F958F80930002FF91EF9133
:100D20009F918F912F910F900FBE0F901F9018954C
:100D30008081F4CF1F920F920FB60F9211242F9340
:100D40003F934F935F936F937F938F939F93AF9353
:100D5000BF93EF93FF938091B900887F803609F4A9
:100D60004AC0F0F5883209F4A7C018F5803109F4BB
:100D70009BC0B8F4882309F4F9C0883009F494C002
:100D8000FF91EF91BF91AF919F918F917F916F9163
:100D90005F914F913F912F910F900FBE0F901F9039
:100DA0001895883109F488C0803251F78093B901D1
:100DB00014C0803409F49DC040F48033B9F3883303
:100DC000F9F68093B90185ECB0C0803509F485C08F
:100DD000883509F496C0883499F60E94C005D0CFB2
:100DE000883909F48CC038F5883729F050F48836F2
:100DF00011F0803729F683E08093BB0110928701C0
:100E000057C0883809F47BC0803919F0803809F060
:100E1000B7CF80918701803208F071C0E0918701DF
:100E200081E08E0F809387018091BB00F0E0E9594B
:100E3000FE4F80833DC0803B39F0E0F4803A09F4F6
:100E400079C0883A09F09CCF84E08093BB0110926E
:100E5000660110926501E0918A01F0918B0109957C
:100E60008091650181110FC081E08093650110922E
:100E7000450109C0803C09F4A6CF883C09F4A3CF02
:100E8000883B09F07DCFE091660181E08E0F809371
:100E90006601F0E0EB5BFE4F80818093BB00909198
:100EA00066018091650129C08091B6018093BB00E5
:100EB00085EC8093BC0064CF9091B8018091B7011C
:100EC000981758F5E091B80181E08E0F8093B80132
:100ED000F0E0EB56FE4F8081E9CFE091B80181E070
:100EE0008E0F8093B8018091BB00F0E0EB56FE4F6F
:100EF00080839091B8018091B7019817C8F285E876
:100F0000D8CFE091B80181E08E0F8093B801809135
:100F1000BB00F0E0EB56FE4F80838091BA01811157
:100F20005CCF81E08093B50184EA8093BC0010928D
:100F3000BB0126CF85EC8093BC001092BB01809151
:100F40008701803230F4E0918701F0E0E959FE4FEB
:100F500010826091870170E0E0918801F091890131
:100F600087E691E00995109287010ACF1092B901A6
:100F700034CFE7EEF1E01382128288EE93E0A0E036
:100F8000B0E084839583A683B78324E031E0318386
:100F9000208325EC30E03587248724EC30E0378748
:100FA000268720EC30E0318B208B21EC30E0338B36
:100FB000228B22EC30E0358B248B26EC30E0378B13
:100FC000268B118E128E138E148EE4E8F2E01382BB
:100FD000128284839583A683B78386E191E091830F
:100FE0008083A0E9B2E080E48C931296FC93EE93A8
:100FF00011970895789484B5826084BD84B581602A
:1010000084BD85B5826085BD85B5816085BD8091D3
:101010006E00816080936E0010928100809181004B
:101020008260809381008091810081608093810043
:10103000809180008160809380008091B100846005
:101040008093B1008091B00081608093B000809166
:101050007A00846080937A0080917A008260809325
:101060007A0080917A00816080937A0080917A0082
:10107000806880937A001092C100E091F701F091AE
:10108000F80182E08083E091F301F091F401108295
:10109000E091F501F091F6018FEC80831092FF0151
:1010A000E091FB01F091FC0186E08083E091F90181
:1010B000F091FA01808180618083E091F901F091E3
:1010C000FA01808188608083E091F901F091FA0152
:1010D000808180688083E091F901F091FA0180813C
:1010E0008F7D80831092C2011092C1011092E401A1
:1010F0001092E3010E94620285E291E090938B01DD
:1011000080938A0186E291E090938901809388011F
:1011100060E880E00E940E046AE070E080E090E009
:101120000E94F30060E070E08AE794E40E943D04CE
:1011300080EC9CEFABE9B1E0809393029093940232
:10114000A0939502B093960260E070E088E492E488
:101150000E943D0480919102909192022091900210
:1011600031E03093E6012093E5011092E401109202
:10117000E301DC01ED91FC910190F081E02D66E14D
:10118000099570E060E080919102909192020E9436
:10119000340270E060E080919102909192020E948E
:1011A00034026BE371E080919102909192020E946F
:1011B000340261E070E080919102909192020E946D
:1011C000340280919102909192020E942703C0E024
:1011D000D0E02097F1F30E9491018823D1F30E947F
:1011E0000000F7CF5058BB27AA270E940A090C9489
:1011F0007D0A0E946F0A38F00E94760A20F039F4C6
:101200009F3F19F426F40C946C0A0EF4E095E7FB6A
:101210000C94660AE92F0E948E0A58F3BA176207E7
:1012200073078407950720F079F4A6F50C94B00AAB
:101230000EF4E0950B2EBA2FA02D0B01B9019001F1
:101240000C01CA01A0011124FF27591B99F0593F35
:1012500050F4503E68F11A16F040A22F232F342F7D
:101260004427585FF3CF469537952795A795F040CB
:101270005395C9F77EF41F16BA0B620B730B840BE0
:10128000BAF09150A1F0FF0FBB1F661F771F881F98
:10129000C2F70EC0BA0F621F731F841F48F48795F0
:1012A00077956795B795F7959E3F08F0B0CF9395E2
:1012B000880F08F09927EE0F9795879508950E945B
:1012C000420A08F481E008950E9478090C947D0A8E
:1012D0000E94760A58F00E946F0A40F029F45F3F9E
:1012E00029F00C94660A51110C94B10A0C946C0A02
:1012F0000E948E0A68F39923B1F3552391F3951B4D
:10130000550BBB27AA2762177307840738F09F5F26
:101310005F4F220F331F441FAA1FA9F335D00E2E93
:101320003AF0E0E832D091505040E695001CCAF700
:101330002BD0FE2F29D0660F771F881FBB1F2617C3
:1013400037074807AB07B0E809F0BB0B802DBF019A
:10135000FF2793585F4F3AF09E3F510578F00C9469
:10136000660A0C94B10A5F3FE4F3983ED4F3869585
:1013700077956795B795F7959F5FC9F7880F911D8A
:101380009695879597F90895E1E0660F771F881F76
:10139000BB1F621773078407BA0720F0621B730B29
:1013A000840BBA0BEE1F88F7E09508950E94960A09
:1013B00088F09F5798F0B92F9927B751B0F0E1F016
:1013C000660F771F881F991F1AF0BA95C9F714C0C6
:1013D000B13091F00E94B00AB1E008950C94B00AC7
:1013E000672F782F8827B85F39F0B93FCCF38695FF
:1013F00077956795B395D9F73EF49095809570955C
:1014000061957F4F8F4F9F4F0895E89409C097FBD8
:101410003EF490958095709561957F4F8F4F9F4FCB
:101420009923A9F0F92F96E9BB279395F69587950F
:1014300077956795B795F111F8CFFAF4BB0F11F4D2
:1014400060FF1BC06F5F7F4F8F4F9F4F16C0882379
:1014500011F096E911C0772321F09EE8872F762FAF
:1014600005C0662371F096E8862F70E060E02AF0F0
:101470009A95660F771F881FDAF7880F96958795DC
:1014800097F90895990F0008550FAA0BE0E8FEEFB1
:1014900016161706E807F907C0F012161306E40738
:1014A000F50798F0621B730B840B950B39F40A2631
:1014B00061F0232B242B252B21F408950A2609F40F
:1014C000A140A6958FEF811D811D089597F99F6713
:1014D00080E870E060E008959FEF80EC08950024BC
:1014E0000A941616170618060906089500240A9489
:1014F00012161306140605060895092E0394000C0F
:1015000011F4882352F0BB0F40F4BF2B11F460FF9D
:1015100004C06F5F7F4F8F4F9F4F089557FD9058C6
:10152000440F551F59F05F3F71F04795880F97FBA7
:10153000991F61F09F3F79F0879508951216130661
:101540001406551FF2CF4695F1DF08C01616170690
:101550001806991FF1CF86957105610508940895C5
:10156000E894BB2766277727CB0197F908950E9457
:10157000420A08F48FEF08950E94CF0A0C947D0A66
:101580000E946F0A38F00E94760A20F0952311F02D
:101590000C94660A0C946C0A11240C94B10A0E94F3
:1015A0008E0A70F3959FC1F3950F50E0551F629F0F
:1015B000F001729FBB27F00DB11D639FAA27F00DAC
:1015C000B11DAA1F649F6627B00DA11D661F829FD3
:1015D0002227B00DA11D621F739FB00DA11D621FB8
:1015E000839FA00D611D221F749F3327A00D611DD5
:1015F000231F849F600D211D822F762F6A2F1124B7
:101600009F5750409AF0F1F088234AF0EE0FFF1FE9
:10161000BB1F661F771F881F91505040A9F79E3F40
:10162000510580F00C94660A0C94B10A5F3FE4F314
:10163000983ED4F3869577956795B795F795E79596
:101640009F5FC1F7FE2B880F911D9695879597F99F
:101650000895EE0FFF1F0590F491E02D0994F89482
:10166000FFCF00000000C7012701540114028501CB
:101670006301770100000000F802CB023A04A102E6
:06168000C402B102A20247
:107E0000112484B714BE81FFF0D085E080938100F7
:107E100082E08093C00088E18093C10086E0809377
:107E2000C20080E18093C4008EE0C9D0259A86E02C
:107E300020E33CEF91E0309385002093840096BBD3
:107E4000B09BFECF1D9AA8958150A9F7CC24DD24C4
:107E500088248394B5E0AB2EA1E19A2EF3E0BF2EE7
:107E6000A2D0813461F49FD0082FAFD0023811F036
:107E7000013811F484E001C083E08DD089C08234E0
:107E800011F484E103C0853419F485E0A6D080C0E4
:107E9000853579F488D0E82EFF2485D0082F10E0AE
:107EA000102F00270E291F29000F111F8ED06801E7
:107EB0006FC0863521F484E090D080E0DECF843638
:107EC00009F040C070D06FD0082F6DD080E0C81688
:107ED00080E7D80618F4F601B7BEE895C0E0D1E017
:107EE00062D089930C17E1F7F0E0CF16F0E7DF06D8
:107EF00018F0F601B7BEE89568D007B600FCFDCFD4
:107F0000A601A0E0B1E02C9130E011968C91119780
:107F100090E0982F8827822B932B1296FA010C0160
:107F200087BEE89511244E5F5F4FF1E0A038BF0790
:107F300051F7F601A7BEE89507B600FCFDCF97BE46
:107F4000E89526C08437B1F42ED02DD0F82E2BD052
:107F50003CD0F601EF2C8F010F5F1F4F84911BD097
:107F6000EA94F801C1F70894C11CD11CFA94CF0C13
:107F7000D11C0EC0853739F428D08EE10CD085E9AC
:107F80000AD08FE07ACF813511F488E018D01DD067
:107F900080E101D065CF982F8091C00085FFFCCF94
:107FA0009093C60008958091C00087FFFCCF809118
:107FB000C00084FD01C0A8958091C6000895E0E648
:107FC000F0E098E1908380830895EDDF803219F02E
:107FD00088E0F5DFFFCF84E1DECF1F93182FE3DFCA
:107FE0001150E9F7F2DF1F91089580E0E8DFEE27F6
:047FF000FF270994CA
:027FFE00040479
:00000001FF
