:100000000C9492000C94BA000C94BA000C94BA00B0
:100010000C94BA000C94BA000C94BA000C94BA0078
:100020000C94BA000C94BA000C94BA000C94BA0068
:100030000C94BA000C94BA000C94BA000C94BA0058
:100040000C94A8070C94BA000C9418080C94F207AE
:100050000C94BA000C94BA000C94BA000C94BA0038
:100060000C944A080C94BA00084AD73B3BCE016E68
:1000700084BCBFFDC12F3D6C74319ABD56833DDAFF
:100080003D00C77F11BED9E4BB4C3E916BAAAABE0E
:10009000000000803F072C7AA5BA6CC590DA3B932C
:1000A00065FC8BBC53F810FD3C5692834DBD879D7B
:1000B0003AB63DCBC9BF5BBE73DA0FC93F05A84C4A
:1000C000CDB2D44EB93836A9020C50B99186880801
:1000D0003CA6AAAA2ABE000000803F000000000043
:1000E000250028002B000404040404040404020274
:1000F00002020202030303030303010204081020A7
:1001000040800102040810200102040810200000B1
:1001100000080002010000030407000000000000C6
:100120000000690911241FBECFEFD8E0DEBFCDBFAC
:1001300011E0A0E0B1E0E8E0F0E202C005900D922D
:10014000A432B107D9F722E0A4E2B1E001C01D92C8
:10015000A739B207E1F710E0C2E9D0E004C0219767
:10016000FE010E94FC0FC139D107C9F70E94AA09FC
:100170000C9402100C94000090E0FC01E25FFE4F32
:100180002491FC01E650FF4F3491FC01EA51FF4FEE
:10019000E491EE23C9F0222339F0233001F1A8F4D1
:1001A000213019F1223029F1F0E0EE0FFF1FE45267
:1001B000FF4FA591B4918FB7F894EC91611126C0CF
:1001C00030953E233C938FBF08952730A9F0283007
:1001D000C9F0243049F7809180008F7D03C0809161
:1001E00080008F7780938000DFCF84B58F7784BDC8
:1001F000DBCF84B58F7DFBCF8091B0008F7780936C
:10020000B000D2CF8091B0008F7DF9CF3E2BDACFF6
:100210003FB7F8948091910190919201A091930140
:10022000B091940126B5A89B05C02F3F19F0019607
:10023000A11DB11D3FBFBA2FA92F982F8827BC0140
:10024000CD01620F711D811D911D42E0660F771F68
:10025000881F991F4A95D1F708958F929F92AF9268
:10026000BF92CF92DF92EF92FF926B017C010E94CE
:1002700008014B015C01C114D104E104F104B9F09F
:100280000E940801681979098A099B09683E734030
:100290008105910580F321E0C21AD108E108F10837
:1002A00088EE880E83E0981EA11CB11CE4CFFF905D
:1002B000EF90DF90CF90BF90AF909F908F90089578
:1002C00008950895AF92BF92CF92DF92EF92FF927E
:1002D0000F931F93CF93DF936C017B018B01040F6E
:1002E000151FEB015E01AE18BF08C017D10759F00A
:1002F0006991D601ED91FC910190F081E02DC6014C
:100300000995892B79F7C501DF91CF911F910F9145
:10031000FF90EF90DF90CF90BF90AF900895FC01D9
:10032000538D448D252F30E0842F90E0821B930B5A
:10033000541710F0CF96089501970895FC01918D00
:10034000828D981761F0A28DAE0FBF2FB11D5D9603
:100350008C91928D9F5F9F73928F90E008958FEFA5
:100360009FEF0895FC01918D828D981731F0828D59
:10037000E80FF11D858D90E008958FEF9FEF0895B0
:10038000FC01918D228D892F90E0805C9F4F821B14
:1003900091098F739927089587EE91E00E94C0011B
:1003A00021E0892B09F420E0822F089580E090E07D
:1003B000892B29F00E94CC0181110C940000089532
:1003C000FC01A48DA80FB92FB11DA35ABF4F2C91CA
:1003D000848D90E001968F739927848FA689B789C1
:1003E0002C93A089B1898C91837080648C93938DB8
:1003F000848D981306C00288F389E02D80818F7D5B
:1004000080830895EF92FF920F931F93CF93DF9312
:10041000EC0181E0888F9B8D8C8D98131AC0E88940
:10042000F989808185FF15C09FB7F894EE89FF890F
:100430006083E889F98980818370806480839FBFAD
:1004400081E090E0DF91CF911F910F91FF90EF90AD
:100450000895F62E0B8D10E00F5F1F4F0F731127BD
:10046000E02E8C8D8E110CC00FB607FCFACFE889F8
:10047000F989808185FFF5CFCE010E94E001F1CF9F
:10048000EB8DEC0FFD2FF11DE35AFF4FF0829FB76C
:10049000F8940B8FEA89FB8980818062CFCFCF935C
:1004A000DF93EC01888D8823B9F0AA89BB89E8899C
:1004B000F9898C9185FD03C0808186FD0DC00FB642
:1004C00007FCF7CF8C9185FFF2CF808185FFEDCFC0
:1004D000CE010E94E001E9CFDF91CF910895DC01C8
:1004E000ED91FC910190F081E02D0994209165013E
:1004F000260F3327331F21323105ECF42091BB0145
:10050000FC0190E080E0243069F082E00895A09141
:1005100065012191AC014B5B5E4FA40FB52FB11D5E
:100520002C930196861798F380916501680F60936C
:10053000650180E0089581E008951092BB0181E09B
:100540008093BA011092B50161E082E10E94BC0083
:1005500061E083E10E94BC00E9EBF0E080818E7FE6
:10056000808380818D7F808388E48093B80085E4D8
:100570008093BC000895CF93DF9391E09093440162
:100580008823B9F0C091B800D091BA008091BC0026
:100590008A7B8093BC0060E082E10E94BC0060E046
:1005A00083E10E94BC000E949D02D093BA00C093D8
:1005B000B800DF91CF9108950895E091C201809134
:1005C000C101E81730F4F0E0ED53FE4F808190E078
:1005D00008958FEF9FEF08959091C2018091C1011E
:1005E0002FEF3FEF981748F4E92FF0E0ED53FE4F5F
:1005F000208130E09F5F9093C201C90108958091EE
:10060000C1019091C201891B990B0895CF92DF928D
:10061000EF92FF920F931F93CF93DF937C01CB0157
:100620008A012091E601222389F0EB016B01C40EBF
:10063000D51ECC15DD0569F06991D701ED91FC91CE
:100640000190F081E02DC7010995F3CF642F0E943E
:100650007602C801DF91CF911F910F91FF90EF902B
:10066000DF90CF900895CF93DF931F92CDB7DEB781
:1006700069832091E6012223F9F02091E3012032E1
:1006800058F021E030E0FC013383228390E080E0E9
:100690000F90DF91CF9108958091E401E82FF0E071
:1006A000EC5DFE4F998190838F5F8093E40180938E
:1006B000E30181E090E0ECCF61E0CE0101960E9481
:1006C0007602F7CFCF92DF92EF92FF920F931F93B4
:1006D000CF93DF93D091E30181E0D13208F09CC049
:1006E000C091E5010E9408016B017C018091BB0172
:1006F00081116CC082E08093BB0181E08093BA01DC
:100700008FEF8093B9011092B801D093B701A4E2A2
:10071000B1E0E5E9F1E080E0D8138DC01092B601B8
:100720008091B601CC0FC82BC093B6018091B50162
:10073000813009F084C01092B5010E9408016B015C
:100740007C018091B6018093BB008091BD019091A6
:10075000BE01A091BF01B091C001892B8A2B8B2BC8
:10076000A1F00E9408010091BD011091BE012091ED
:10077000BF013091C0016C197D098E099F090617D0
:1007800017072807390708F442C08091BC0083FD91
:10079000D8CF85EC8093BC000E9408016B017C01DE
:1007A0008091BB01823009F44CC08091B9018F3F28
:1007B00009F469C08091B901803209F466C0809162
:1007C000B901803309F463C084E026C08091BD0183
:1007D0009091BE01A091BF01B091C001892B8A2BDD
:1007E0008B2B09F483CF0E9408010091BD01109169
:1007F000BE012091BF013091C0016C197D098E09A5
:100800009F09061717072807390708F06FCF80914F
:10081000BC010E94BB0285E01092E4011092E3014A
:100820001092E601DF91CF911F910F91FF90EF9011
:10083000DF90CF9008959D9191938F5F6DCF85EE5E
:10084000A9CF8091BD019091BE01A091BF01B0914F
:10085000C001892B8A2B8B2B09F4A2CF0E9408019F
:100860000091BD011091BE012091BF013091C001E6
:100870006C197D098E099F09061717072807390784
:1008800008F08ECFC4CF80E0C7CF82E0C5CF83E031
:10089000C3CF0F931F93CF93DF938B01C0E9D2E0B7
:1008A000A981BA81988121E02093E6019093E50126
:1008B0001092E4011092E30194E0899FB0011124A9
:1008C0006A5F7F4FED91FC9111970190F081E02DCF
:1008D000CD01099570E060E089819A810E946F02E4
:1008E00070E060E089819A810E946F02B80189817D
:1008F0009A810E946F02612F70E089819A810E9423
:100900006F0289819A81DF91CF911F910F910C9491
:1009100062031F93CF93DF93162FC0E9D2E0A98122
:10092000BA81988121E02093E6019093E50110922D
:10093000E4011092E301ED91FC9111970190F08197
:10094000E02D682FCD01099589819A81DC01ED9117
:10095000FC910190F081E02D612F099589819A81A8
:10096000DF91CF911F910C94620390E080E0089595
:100970008F929F92AF92BF92CF92DF92EF92FF92AF
:100980000F931F93CF936B017C0120E030E040E890
:100990005FE30E941D0D87FDE1C020E030EC4AE5D9
:1009A00055E4C701B6010E94070F18163CF4C12C8C
:1009B00030ECD32E3AE5E32E35E4F32E609193022A
:1009C0007091940280919502909196020E94CF0DB1
:1009D0004B015C0120E030E040E855E4C701B6017E
:1009E0000E94140F9B01AC01C501B4010E94270DA8
:1009F00020E030E040E05FE30E94820C20E030E045
:100A000040E85FE30E94810C6B017C0120E030E054
:100A100040E450E40E941D0D87FDA7C020E030E0B7
:100A20004FE753E4C701B6010E94070F181634F4CC
:100A3000C12CD12C9FE7E92E93E4F92EC701B60112
:100A40000E94A00DF62E8091910290919202209129
:100A5000900231E03093E6012093E5011092E40129
:100A60001092E301DC01ED91FC910190F081E02D09
:100A700060E0099580919102909192020E94620338
:100A8000C09190020E9408014B015C018091BB0162
:100A9000811171C081E08093BB018093BA019FEF07
:100AA0009093B9011092B8011092B7018093B601EA
:100AB0008091B601CC0FC82BC093B6018091B501CF
:100AC000813009F0B2C01092B5010E9408014B01BB
:100AD0005C018091B6018093BB008091BD01909133
:100AE000BE01A091BF01B091C001892B8A2B8B2B35
:100AF000A1F00E9408010091BD011091BE0120915A
:100B0000BF013091C001681979098A099B0906174C
:100B100017072807390708F44FC08091BC0083FDF0
:100B2000D8CF85EC8093BC000E9408014B015C018A
:100B30008091BB01813009F47AC08091B8018111A4
:100B400098C08091B801E5E9F1E0A3ECB1E090E054
:100B50009817B9F121912D939F5FFACFC12CD12C19
:100B600020E8E22E2FE3F22E29CFC12CD12C80E4F5
:100B7000E82EFE2C63CF8091BD019091BE01A09123
:100B8000BF01B091C001892B8A2B8B2B09F47ECF3A
:100B90000E9408010091BD011091BE012091BF018A
:100BA0003091C001681979098A099B09061717074E
:100BB0002807390708F06ACF8091BC010E94BB0268
:100BC00080E01092C2018093C101809191029091C6
:100BD0009202DC01ED91FC910284F385E02D0995F0
:100BE000C82F682F6F76606180E00E9489046F2DA6
:100BF0008EEF0E9489046C2F80E00E94890465E0DA
:100C000070E080E090E00E942D016C2F606A80E02F
:100C1000CF911F910F91FF90EF90DF90CF90BF90F9
:100C2000AF909F908F900C94890485EE7BCF80913C
:100C3000BD019091BE01A091BF01B091C001892B6F
:100C40008A2B8B2B09F474CF0E9408010091BD01FF
:100C50001091BE012091BF013091C001681979093E
:100C60008A099B09061717072807390708F060CF7C
:100C7000A3CF81E068CF85ED8093BC008091BD015A
:100C80009091BE01A091BF01B091C0010796A11D36
:100C9000B11D23E0B695A795979587952A95D1F72D
:100CA0002091BC0024FD03C01092BB010895409127
:100CB000BD015091BE016091BF017091C001452BF3
:100CC000462B472B69F30097A105B10541F02AE2B5
:100CD0002A95F1F700C00197A109B109E1CF8091F0
:100CE000BC010C94BB024F925F926F927F928F92E5
:100CF0009F92AF92BF92CF92DF92EF92FF920F93AB
:100D0000CF93DF9300D000D01F92CDB7DEB72B0179
:100D10003C0149015A01ED82AC019B010E94140F74
:100D20006B017C01A5019401C501B4010E94140F5F
:100D300069837A838B839C839B01AC01C701B601D5
:100D40000E94820C0E948F0F20E030E048EA52E4BB
:100D50000E94070F87FD0AC06CE870E0802F0E9498
:100D600049046CE870E08D810E944904A701960156
:100D700060E070E884E695E40E94810C29813A8164
:100D80004B815C810E94810C20E030E844E555E411
:100D90000E94270D0E94700C9B01AC0166E57EE06D
:100DA00089E490E40E94810C6B017C01A301920113
:100DB000C501B4010E94270D0E94EE0C69837A835D
:100DC0008B839C83C701B6010E94810F4B015C019C
:100DD000C701B6010E94220D2B013C0120E030E04A
:100DE00048E452E4C501B4010E94140F4B015C01B8
:100DF00020E030E048E452E4C301B2010E94140F45
:100E000020E030E048E052E40E94820C9B01AC01FB
:100E1000C501B4010E94270D0E94EE0C9B01AC019C
:100E200069817A818B819C810E94810C20E030E075
:100E300044E353E40E94140F26E53EE049E450E405
:100E40000E94270D4B015C0120E030E044E353E4B5
:100E5000C701B6010E94140F26E53EE049E450E4C4
:100E60000E94270D6B017C0120E030E0A901C50143
:100E7000B4010E941D0D87FF0AC020E030E044E36A
:100E800053E4C501B4010E94820C4B015C01A50131
:100E9000940160E070E084E393E40E94810C4B01D4
:100EA0005C0120E030E041E153E4C701B6010E945B
:100EB000070F181634F4C12CD12C31E1E32E33E4A2
:100EC000F32EC501B4010E94990D9B01AC01AEE562
:100ED000B1E00E94340C24EB822E912CA12CB12C79
:100EE000A50194010E94150CCA01B90164577F4FF6
:100EF0008F4F9F4F802F0E944904C701B6010E9467
:100F0000990D9B01AC01AEE5B1E00E94340CA50146
:100F100094010E94150CCA01B90164577F4F8F4F8D
:100F20009F4F8D810F900F900F900F900F90DF913A
:100F3000CF910F91FF90EF90DF90CF90BF90AF9047
:100F40009F908F907F906F905F904F900C9449048A
:100F50001F920F920FB60F9211242F933F938F93EE
:100F60009F93AF93BF9380918D0190918E01A0913B
:100F70008F01B091900130918C0123E0230F2D3728
:100F800058F50196A11DB11D20938C0180938D0110
:100F900090938E01A0938F01B09390018091910165
:100FA00090919201A0919301B09194010196A11D9D
:100FB000B11D8093910190939201A0939301B093FE
:100FC0009401BF91AF919F918F913F912F910F907D
:100FD0000FBE0F901F90189526E8230F0296A11DB3
:100FE000B11DD2CF1F920F920FB60F9211242F93E3
:100FF0003F934F935F936F937F938F939F93AF93A1
:10100000BF93EF93FF9387EE91E00E94E001FF9181
:10101000EF91BF91AF919F918F917F916F915F9170
:101020004F913F912F910F900FBE0F901F901895E9
:101030001F920F920FB60F9211242F938F939F93AD
:10104000EF93FF93E091F701F091F8018081E09137
:10105000FD01F091FE0182FD1BC090818091000294
:101060008F5F8F7320910102821741F0E09100029F
:10107000F0E0E951FE4F958F80930002FF91EF91D0
:101080009F918F912F910F900FBE0F901F901895E9
:101090008081F4CF1F920F920FB60F9211242F93DD
:1010A0003F934F935F936F937F938F939F93AF93F0
:1010B000BF93EF93FF938091B900887F803609F446
:1010C0004AC0F0F5883209F4A7C018F5803109F458
:1010D0009BC0B8F4882309F4F9C0883009F494C09F
:1010E000FF91EF91BF91AF919F918F917F916F9100
:1010F0005F914F913F912F910F900FBE0F901F90D6
:101100001895883109F488C0803251F78093B9016D
:1011100014C0803409F49DC040F48033B9F388339F
:10112000F9F68093B90185ECB0C0803509F485C02B
:10113000883509F496C0883499F60E943B06D0CFD2
:10114000883909F48CC038F5883729F050F488368E
:1011500011F0803729F683E08093BB01109287015C
:1011600057C0883809F47BC0803919F0803809F0FD
:10117000B7CF80918701803208F071C0E09187017C
:1011800081E08E0F809387018091BB00F0E0E959E8
:10119000FE4F80833DC0803B39F0E0F4803A09F493
:1011A00079C0883A09F09CCF84E08093BB0110920B
:1011B000660110926501E0918A01F0918B01099519
:1011C0008091650181110FC081E0809365011092CB
:1011D000450109C0803C09F4A6CF883C09F4A3CF9F
:1011E000883B09F07DCFE091660181E08E0F80930E
:1011F0006601F0E0EB5BFE4F80818093BB00909135
:1012000066018091650129C08091B6018093BB0081
:1012100085EC8093BC0064CF9091B8018091B701B8
:10122000981758F5E091B80181E08E0F8093B801CE
:10123000F0E0EB56FE4F8081E9CFE091B80181E00C
:101240008E0F8093B8018091BB00F0E0EB56FE4F0B
:1012500080839091B8018091B7019817C8F285E812
:10126000D8CFE091B80181E08E0F8093B8018091D2
:10127000BB00F0E0EB56FE4F80838091BA018111F4
:101280005CCF81E08093B50184EA8093BC0010922A
:10129000BB0126CF85EC8093BC001092BB018091EE
:1012A0008701803230F4E0918701F0E0E959FE4F88
:1012B00010826091870170E0E0918801F0918901CE
:1012C00087E691E00995109287010ACF1092B90143
:1012D00034CFE7EEF1E01382128288EE93E0A0E0D3
:1012E000B0E084839583A683B78324E031E0318323
:1012F000208325EC30E03587248724EC30E03787E5
:10130000268720EC30E0318B208B21EC30E0338BD2
:10131000228B22EC30E0358B248B26EC30E0378BAF
:10132000268B118E128E138E148EE4E8F2E0138257
:10133000128284839583A683B78386E191E09183AB
:101340008083A0E9B2E080E48C931296FC93EE9344
:1013500011970895CF93DF9300D000D000D0CDB780
:10136000DEB7789484B5826084BD84B5816084BD25
:1013700085B5826085BD85B5816085BD80916E0033
:10138000816080936E001092810080918100826064
:1013900080938100809181008160809381008091A1
:1013A00080008160809380008091B1008460809390
:1013B000B1008091B00081608093B00080917A008C
:1013C000846080937A0080917A00826080937A00B2
:1013D00080917A00816080937A0080917A008068A1
:1013E00080937A001092C100E091F701F091F8012A
:1013F00082E08083E091F301F091F4011082E091AA
:10140000F501F091F6018FEC80831092FF01E091DD
:10141000FB01F091FC0186E08083E091F901F091FD
:10142000FA01808180618083E091F901F091FA01F5
:10143000808188608083E091F901F091FA018081D8
:1014400080688083E091F901F091FA0180818F7DBD
:1014500080831092C2011092C1011092E401109297
:10146000E3010E949D0280E691E090938B018093BE
:101470008A0181E691E0909389018093880160E878
:1014800080E00E9489046AE070E080E090E00E94C1
:101490002D0160E070E08AE794E40E94B80480ECDB
:1014A0009CEFABE9B1E08093930290939402A093F8
:1014B0009502B093960260E070E088E492E40E94A6
:1014C000B8046AE471E080E00E94490462E471E0DB
:1014D00088E00E94490461E371E08CE00E944904C5
:1014E0006BE271E084E00E94490402E0E02EF12CFE
:1014F00001E010E020E030E04CE852E460E070E011
:10150000CB010E94730686E0E82EF12C05E010E086
:1015100020E030E04CE852E460E070E0CB010E9453
:1015200073069AE0E92EF12C09E010E020E030E0AB
:101530004CE852E460E070E0CB010E9473062EE0BC
:10154000E22EF12C0DE010E020E030E04CE852E417
:1015500060E070E0CB010E94730668EE73E080E00B
:1015600090E00E942D0130E0232E30E0332E1E82C9
:101570001D822D813E81B901330F880B990B0E948A
:10158000D10D69837A838B839C8324E03DEA40E01C
:101590005EE30E94140F6B017C010E94810F9B018E
:1015A000AC01C701B6010E94810C20E030E040EEA2
:1015B00050E40E94140F2B013C01C701B6010E94A8
:1015C000220D9B01AC0160E070E080E89FE30E9487
:1015D000810C2DEC3CEC4CE950E40E94140F9B0173
:1015E000AC0160E070E08CE892E40E94810C4B0159
:1015F0005C0120E030E040EA50E40E94810C9B0155
:10160000AC01F2E0EF2EF12C01E010E0C301B201D9
:101610000E9473062EEA37E441E65FE369817A812E
:101620008B819C810E94140F9B01AC0160E070E0F3
:1016300080E392E40E94810C69837A838B839C838C
:1016400020E030E040EA50E40E94810CA6E0EA2E5F
:10165000F12C05E010E020E030E04CE852E40E947C
:101660007306BAE0EB2EF12C09E010E020E030E048
:1016700042E852E469817A818B819C810E947306E1
:1016800020E030E040EA50E4C301B2010E94810C46
:101690001EE0E12EF12C0DE010E0A50194010E9466
:1016A00073066AE070E080E090E00E942D018D8179
:1016B0009E8101969E838D83C29709F05ACF1E8228
:1016C0001D822D813E81B901330F880B990B0E9439
:1016D000D10D4B015C0124E03DEA40E05EE30E9455
:1016E000140F6B017C010E94810F9B01AC01C701AB
:1016F000B6010E94810C20E030E040EE50E40E94F0
:10170000140F2B013C01C701B6010E94220D9B0161
:10171000AC0160E070E080E89FE30E94810C2DEC5A
:101720003CEC4CE950E40E94140F9B01AC0160E0DA
:1017300070E08CE892E40E94810C69837A838B8349
:101740009C832EEA37E441E65FE3C501B4010E94C1
:10175000140F9B01AC0160E070E080E392E40E9412
:10176000810C4B015C0182E0E82EF12C01E010E0DD
:1017700020E030E042E852E4C501B4010E94730663
:1017800020E030E040EA50E4C301B2010E94810C45
:1017900026E0E22EF12C05E010E029813A814B8110
:1017A0005C810E94730620E030E040EA50E46981E9
:1017B0007A818B819C810E94810C9B01AC016AE043
:1017C000E62EF12C09E010E0C301B2010E9473067D
:1017D00020E030E040EA50E4C501B4010E94810CF1
:1017E000EEE0EE2EF12C0DE010E020E030E04CE8D1
:1017F00052E40E9473066AE070E080E090E00E948C
:101800002D018D819E8101969E838D83C29709F063
:1018100058CF2114310409F4AACE0E94CC018823A8
:1018200009F4A5CE0E940000A2CE052E97FB1EF45F
:1018300000940E942C0C57FD07D00E943F0C07FC1F
:1018400003D04EF40C942C0C509540953095219576
:101850003F4F4F4F5F4F08959095809570956195DC
:101860007F4F8F4F9F4F08950E94610CA59F900D51
:10187000B49F900DA49F800D911D11240895A1E2A5
:101880001A2EAA1BBB1BFD010DC0AA1FBB1FEE1FFA
:10189000FF1FA217B307E407F50720F0A21BB30B45
:1018A000E40BF50B661F771F881F991F1A9469F7C1
:1018B00060957095809590959B01AC01BD01CF011D
:1018C0000895A29FB001B39FC001A39F700D811D19
:1018D0001124911DB29F700D811D1124911D089539
:1018E0009F939F770E940C0E0F90002042F4905817
:1018F000A2EA2AED3FE049E450E40E94990C0C94DE
:10190000B90E5058BB27AA270E94990C0C94B90E07
:101910000E94800E38F00E94870E20F039F49F3F1D
:1019200019F426F40C94560E0EF4E095E7FB0C9493
:10193000500EE92F0E94DE0E58F3BA1762077307A4
:101940008407950720F079F4A6F50C94000F0EF4A7
:10195000E0950B2EBA2FA02D0B01B90190010C01BF
:10196000CA01A0011124FF27591B99F0593F50F4D7
:10197000503E68F11A16F040A22F232F342F44272F
:10198000585FF3CF469537952795A795F040539527
:10199000C9F77EF41F16BA0B620B730B840BBAF0F7
:1019A0009150A1F0FF0FBB1F661F771F881FC2F762
:1019B0000EC0BA0F621F731F841F48F48795779576
:1019C0006795B795F7959E3F08F0B0CF9395880F30
:1019D00008F09927EE0F979587950895DF93DD27F7
:1019E000B92FBF7740E85FE31616170648075B0775
:1019F00018F4D92F0E940C0F9F938F937F936F93AE
:101A00000E94CF0FE8E6F0E00E94590E0E94B90E46
:101A10002F913F914F915F910E94270FDD2351F04D
:101A20009058A2EA2AED3FE049EC5FE3D0785D27C9
:101A30000E94990CDF910C94B90E0E942C0E08F4B0
:101A400081E008950E94900EE3950C94CA0E0E94C6
:101A50003B0D0C94B90E0E94870E58F00E94800E28
:101A600040F029F45F3F29F00C94500E51110C9472
:101A7000010F0C94560E0E94DE0E68F39923B1F309
:101A8000552391F3951B550BBB27AA2762177307A4
:101A9000840738F09F5F5F4F220F331F441FAA1F38
:101AA000A9F335D00E2E3AF0E0E832D091505040F4
:101AB000E695001CCAF72BD0FE2F29D0660F771FA2
:101AC000881FBB1F261737074807AB07B0E809F088
:101AD000BB0B802DBF01FF2793585F4F3AF09E3F0D
:101AE000510578F00C94500E0C94010F5F3FE4F315
:101AF000983ED4F3869577956795B795F7959F5F50
:101B0000C9F7880F911D9695879597F90895E1E09B
:101B1000660F771F881FBB1F621773078407BA07FA
:101B200020F0621B730B840BBA0BEE1F88F7E09555
:101B300008950E94A00D6894B1110C94010F0895AE
:101B40000E94E60E88F09F5798F0B92F9927B75159
:101B5000B0F0E1F0660F771F881F991F1AF0BA9551
:101B6000C9F714C0B13091F00E94000FB1E00895A0
:101B70000C94000F672F782F8827B85F39F0B93F92
:101B8000CCF3869577956795B395D9F73EF4909504
:101B90008095709561957F4F8F4F9F4F0895E89482
:101BA00009C097FB3EF490958095709561957F4FA5
:101BB0008F4F9F4F9923A9F0F92F96E9BB27939553
:101BC000F695879577956795B795F111F8CFFAF463
:101BD000BB0F11F460FF1BC06F5F7F4F8F4F9F4F94
:101BE00016C0882311F096E911C0772321F09EE8F2
:101BF000872F762F05C0662371F096E8862F70E058
:101C000060E02AF09A95660F771F881FDAF7880F31
:101C10009695879597F90895DF93CF931F930F9328
:101C20008B01EC01E5E9F0E00E94590E0E94B90E2B
:101C30009801AE018B01EC0160E070E080E89FE369
:101C40000E94810C0E948F0F9801AE010F911F918D
:101C5000CF91DF910C94270F990F0008550FAA0B15
:101C6000E0E8FEEF16161706E807F907C0F01216AF
:101C70001306E407F50798F0621B730B840B950BB2
:101C800039F40A2661F0232B242B252B21F4089507
:101C90000A2609F4A140A6958FEF811D811D0895A4
:101CA00097F99F6780E870E060E008959FEF80EC0F
:101CB0000895DF93CF931F930F93FF92EF92DF92DC
:101CC0007B018C01689406C0DA2EEF010E94270F79
:101CD000FE01E894A5912591359145915591A6F382
:101CE000EF010E94990CFE019701A801DA9469F7AF
:101CF000DF90EF90FF900F911F91CF91DF910895AA
:101D000000240A94161617061806090608950024DA
:101D10000A94121613061406050608950C94560E1E
:101D20000E94E60ED8F3E894E0E0BB279F57F0F05E
:101D30002AED3FE049EC06C0EE0FBB0F661F771F90
:101D4000881F28F0B23A62077307840728F0B25A56
:101D5000620B730B840BE3959A9572F7803830F41D
:101D60009A95BB0F661F771F881FD2F790480C9477
:101D7000D50F092E0394000C11F4882352F0BB0FE9
:101D800040F4BF2B11F460FF04C06F5F7F4F8F4F93
:101D90009F4F0895EF93E0FF07C0A2EA2AED3FE0CE
:101DA00049EC5FEB0E94990C0E94B90E0F900394CE
:101DB00001FC9058EDEBF0E00C94E80F57FD9058C3
:101DC000440F551F59F05F3F71F04795880F97FBFF
:101DD000991F61F09F3F79F08795089512161306B9
:101DE0001406551FF2CF4695F1DF08C016161706E8
:101DF0001806991FF1CF869571056105089408951D
:101E0000E894BB2766277727CB0197F908950E94AE
:101E10002C0E08F48FEF08959B01AC0160E070E098
:101E200080E89FE30C94270D0E94270F0C94B90EB5
:101E30000E94800E38F00E94870E20F0952311F04A
:101E40000C94500E0C94560E11240C94010F0E9409
:101E5000DE0E70F3959FC1F3950F50E0551F629F02
:101E6000F001729FBB27F00DB11D639FAA27F00DF3
:101E7000B11DAA1F649F6627B00DA11D661F829F1A
:101E80002227B00DA11D621F739FB00DA11D621FFF
:101E9000839FA00D611D221F749F3327A00D611D1C
:101EA000231F849F600D211D822F762F6A2F1124FE
:101EB0009F5750409AF0F1F088234AF0EE0FFF1F31
:101EC000BB1F661F771F881F91505040A9F79E3F88
:101ED000510580F00C94500E0C94010F5F3FE4F319
:101EE000983ED4F3869577956795B795F795E795DE
:101EF0009F5FC1F7FE2B880F911D9695879597F9E7
:101F000008959F930E94900E0F9007FCEE5F0C9433
:101F1000CA0E19F416F40C94560E0C94D30F0E94AA
:101F2000E60EB8F39923C9F3B6F39F57550B87FF15
:101F30000E94E10F0024A0E640EA900180585695E7
:101F4000979528F4805C660F771F881F20F026176E
:101F50003707480730F4621B730B840B20293129A3
:101F60004A2BA69517940794202531254A2758F720
:101F7000660F771F881F20F026173707480730F4B1
:101F8000620B730B840B200D311D411DA09581F751
:101F9000B901842F9158880F9695879508959B01D4
:101FA000AC010C94140F9F3F31F0915020F48795B1
:101FB00077956795B795880F911D9695879597F9B1
:101FC000089591505040660F771F881FD2F70895EB
:101FD0009F938F937F936F93FF93EF939B01AC013C
:101FE0000E94140FEF91FF910E94590E2F913F9183
:101FF0004F915F910C94140FEE0FFF1F0590F49119
:08200000E02D0994F894FFCFD4
:1020080000000000020262018F014F02C0019E0120
:10201800B2010000000033030603B504DC02FF022E
:04202800EC02DD02E7
:00000001FF
